:100000000C94CA1D0C94FB1D0C94FB1D0C94FB1D41
:100010000C94FB1D0C94FB1D0C94FB1D0C94FB1D00
:100020000C94FB1D0C94FB1D0C94FB1D0C94FB1DF0
:100030000C94FB1D0C94FB1D0C94FB1D0C94FB1DE0
:100040000C94FB1D0D94690F0C94FB1D0C94FB1D6F
:100050000C94FB1D0C94FB1D0C949AFE0D94E02057
:100060000C94FB1D0C948E3B0C94843B0C94FB1D58
:100070000C94FB1D0C94FB1D0C94FB1D0C94FB1DA0
:100080000C94FB1D0C94FB1D0C94FB1D0C94FB1D90
:100090000C94FB1D0C94FB1D0C94FB1D0C94FB1D80
:1000A0000C94FB1D0C94FB1D0C94FB1D0C94FB1D70
:1000B0000C94FB1D0C94FB1D0C94FB1D0C94FB1D60
:1000C0000C94FB1D0C94FB1D0C94FB1D0C94FB1D50
:1000D0000C94FB1D0C94FB1D0C94FB1D0C94FB1D40
:1000E0000C94FB1D66E246E24CE249E24FE252E22A
:1000F00055E261E258E273E25BE25EE240013802FF
:100100006802C8000602BE01A40164016202620125
:10011000D0004002B6010E01BE013C01680146025A
:100120005002C40114021E0134024E01CA01E4014E
:100130004A0100022E013E02CA0096014E012E0223
:100140005401F400084AD73B3BCE016E84BCBFFD8E
:10015000C12F3D6C74319ABD56833DDA3D00C77F97
:1001600011BED9E4BB4C3E916BAAAABE0000008030
:100170003F05A84CCDB2D44EB93836A9020C50B9BF
:10018000918688083CA6AAAA2ABE000000803F00EB
:100190000D945E1F0D945F200C94944E0C948D5A18
:1001A0000D94811F0C94EFDB0C94196E0C941EF0CF
:1001B0000C94AAE00C9497B00C942BDC0C9446E2BF
:1001C0000C94E0D10C94BB9B0C94FBAC0C943ADAED
:1001D0000C9464E90C9450D40C945B930C94DCDE86
:1001E0000C949BDA0C94F39A0D9487200C9416D8F7
:1001F0000C94E6E00C9438F00C9495F00C9453E0D9
:100200000C9490F00C9462E90C940EDA0C94A85EB5
:100210000C940DDC0C94E69D0C94B75C0D948F1F30
:100220000C9466E20C9466E90C94FFD10C9462FE87
:100230000C9452E20C9401F00C94079B0D940E2048
:100240000C9453DA0C94DE9D0C94EDAB0C94D49A80
:100250000C94F8DB0C9407DC0C94944C0D94462021
:100260000C94CA9D0C9461E20C940AAB0C94F1AA14
:100270000C948BF00C9494DB0D94951F0C941CEE55
:100280000D94681F0C9492B00C94CBE00C9403F383
:100290000C942FE90D9432200C948B5A0D949120DC
:1002A0000C94985A0C944BAF0D947D200C946F4C89
:1002B0000C947AD20C941FDC0C9455E20C946EF0E2
:1002C0000C94D0AC0D947D1F0D94731F0C94AD7ADB
:1002D0000D94991F0C94B7E00C949CB00C94D83BEF
:1002E0000C94E4760C94FCD30C9452D60C94DEAAB5
:1002F0000C94C0C50C947AF00C949AF00C94F3769C
:100300000C94945A0C94CE9D0C94A1B00C94AFDB39
:100310000C942AF30C94594C0C94E8D90C94247C3A
:100320000C9482D90C94D29A0C94F37A0D9469208F
:100330000C9408F30C94E0480C9455E00C94A45EE3
:100340000C9480F00C94AC7F0D946F1F0C94D53BF3
:100350000C945EE20C94B5D30C9484F30C949BDD66
:100360000C94A3DB0C948A790C944CE20D948B1FB3
:100370000C9412F30C94F19C0C94CDD90D94A21F03
:100380000C94F5AC0C9477E00D94FF1F0C94D248BC
:100390000C941EF30D9422200C94B4D90C94F29D6D
:1003A0000C94AD7D0C9472EA0C9419DC0C94884A80
:1003B0000C9458E20C9476DB0C9458D40C940DF306
:1003C0000C949A5A0C943DDC0D942A200C946DD216
:1003D0000C9480E00C9449E20D94092B0C94D69D6A
:1003E0000C9426E00C9430F00C945BE20C9428E022
:1003F0000C9485DB0C9413DC0C94FC9A0C949BD924
:100400000D943C200C94965A0C94C6500D94641F85
:100410000C9486790C9437DC0C94AF5E0C94894C68
:100420000C9468E00C94A4A00D9404200C944FE26A
:100430000C9451F80C9452E90C94787F0C945A93D4
:100440000C9473E20C9427DA0C9430F30C9483F43C
:100450000C945DF50C94DA9D0C94BA930D94732072
:100460000C940CF00C947DF30D9418200C94FBD993
:100470000D946B1F0C94EE9D0D94272B0D94502022
:100480000D94871F0C94E29D0C94D4D10D949D1F64
:100490000C948E790C94B9F00C9407E00C9474F0E1
:1004A0000D94FA1F0C94599C0C9486F00C94EA9DC0
:1004B0000C9431DC0C94C0EB0C9425DC0C94D29D94
:1004C0000C94B8D30D94791F0C94DCAC0C945CDBC9
:1004D0000D945A1F0C94BBD30C9408D20C94EFAC1F
:1004E0004E414E494E495459494E46CDCCCC3D0A19
:1004F000D7233C17B7D13877CC2B329595E6241FFC
:10050000B14F0A000020410000C84200401C4620B4
:10051000BCBE4CCA1B0E5AAEC59D7400407A10F387
:100520005A00A0724E18090010A5D4E80000E87621
:1005300048170000E40B54020000CA9A3B00000078
:10054000E1F505000080969800000040420F000091
:1005500000A08601000000102700000000E8030052
:100560000000006400000000000A0000000000011C
:1005700000000000002C76D888DC674F0823DFC11C
:10058000DFAE59E1B1B796E5E3E453C63AE65199D7
:100590007696E8E6C28426EB898C9B62ED407C6F00
:1005A000FCEFBC9C9F40F2BAA56FA5F490055A2AB7
:1005B000F75C936B6CF9676DC11BFCE0E40D47FEC3
:1005C000F520E6B500D0ED902E03009435770500B8
:1005D00080841E080000204E0A000000C80C33333F
:1005E00033330F986E12831141EF8D2114893BE64E
:1005F0005516CFFEE6DB18D1844B381BF77C1D90D7
:100600001DA4BBE424203284725E228100C9F1243F
:10061000ECA1E53D27434F4D4D554E4943415449CB
:100620004F4E0044525952554E004552524F52536C
:1006300000494E464F004543484F00536C65657076
:100640002E2E2E00486F6D6520257325732573208F
:100650004669727374004D65736820706F696E74BB
:10066000206F7574206F662072616E67650A0043A3
:100670006C69636B20746F20526573756D652E2EE7
:100680002E004E6F204D6F76652E00456E642066FD
:10069000696C65206C6973740A00426567696E2035
:1006A00066696C65206C6973740A004E6F206D6515
:1006B0006469610A00286E6F2066696C65290043D1
:1006C000757272656E742066696C653A20005344D9
:1006D000207072696E74696E67206279746520009B
:1006E0004E6F74205344207072696E74696E670A8D
:1006F000002569730025696D2025697300256968E7
:100700002025696D202569730025696420256968A5
:100710002025696D20256973002569792025696484
:10072000202569682025696D20256973005072694C
:100730006E742074696D653A2000436F6F6C696E4A
:10074000672E2E2E0048656174696E672E2E2E006E
:1007500045202553006F6B006F6666003606310634
:100760002A062306150644454255473A004D3131C5
:10077000322053687574646F776E004D31313320C9
:1007800053004D61676E61204475616C204F464691
:100790002E004348414D4245525F54454D5045520D
:1007A00041545552450042414259535445505049D5
:1007B0004E470041524353004D4F54494F4E5F4DF9
:1007C0004F44455300544845524D414C5F50524FA1
:1007D00054454354494F4E004C4F4E475F46494C99
:1007E000454E414D45004155544F5245504F52548E
:1007F0005F53445F53544154555300524550454153
:1008000054005344434152440050524F4D50545FA2
:10081000535550504F525400454D455247454E4355
:10082000595F50415253455200434153455F4C4933
:100830004748545F4252494748544E455353005429
:100840004F47474C455F4C494748545300534F4628
:1008500054574152455F504F574552004255494CFD
:10086000445F50455243454E54004C4556454C4913
:100870004E475F44415441005A5F50524F42450039
:1008800052554E4F5554004155544F4C4556454CCA
:10089000005052494E545F4A4F420050524F475207
:1008A000455353004155544F5245504F52545F5495
:1008B000454D5000564F4C554D4554524943004507
:1008C0004550524F4D0042494E4152595F46494CA6
:1008D000455F5452414E534645520053455249419B
:1008E0004C5F584F4E5F584F4646004649524D5751
:1008F0004152455F4E414D453A4D61726C696E20E3
:100900006275676669782D322E302E7820284A610C
:100910006E20203920323032312031393A35333AA5
:1009200033382920534F555243455F434F44455F69
:1009300055524C3A6769746875622E636F6D2F4D1E
:1009400061726C696E4669726D776172652F4D6177
:10095000726C696E2050524F544F434F4C5F564556
:100960005253494F4E3A312E30204D414348494E63
:10097000455F545950453A4D61676E612044756139
:100980006C2045585452554445525F434F554E5480
:100990003A3120555549443A63656465326132669F
:1009A0002D343161322D343734382D396231322DC6
:1009B0006335356336326633363766660A002F2F65
:1009C000004D31343520533C696E6465783E206FAC
:1009D0007574206F662072616E67652028302D3136
:1009E000290A00205200416363656C657261746975
:1009F0006F6E3A2050004F4646004F4E0020204D6B
:100A000061783A2000200020204D696E3A20005382
:100A10006F667420656E6473746F70733A2000465D
:100A2000523A0020466C6F773A20004D424C2041EC
:100A3000646A757374205A0020643A0020693A0091
:100A400020703A00496E76616C6964206578747232
:100A5000756465720A0020643A0020693A002070CB
:100A60003A0064697300656E0043290A0061626C94
:100A7000656420286D696E2074656D702000436F79
:100A80006C6420657874727564657320617265208A
:100A90000046696C616D656E742072756E6F757459
:100AA00020004D65736820706F696E74206F7574D7
:100AB000206F662072616E67650A004D3432312006
:100AC000696E636F727265637420706172616D65C7
:100AD0007465722075736167650A00454550524F11
:100AE0004D204F4B0A00506F7765722D6C6F7373FA
:100AF000207265636F7665727920004D383400444A
:100B00006F6E65207072696E74696E672066696CBD
:100B1000650A004D3737004D333100496E76616C00
:100B200069642065787472756465720A0045727232
:100B30006F722077726974696E6720746F20454503
:100B400050524F4D210A0053544F505045442E20CF
:100B5000005072696E7465722073746F7070656492
:100B60002064756520746F206572726F72732E2019
:100B700046697820746865206572726F7220616EB4
:100B80006420757365204D39393920746F20726582
:100B900073746172742E202854656D70657261746F
:100BA0007572652069732072657365742E205365B4
:100BB0007420697420616674657220726573746153
:100BC0007274696E67290A004E6F20436865636B13
:100BD00073756D2077697468206C696E65206E7519
:100BE0006D6265722C204C617374204C696E653A9D
:100BF00020004E6F20436865636B73756D207769C5
:100C00007468206C696E65206E756D6265722C204B
:100C10004C617374204C696E653A200063686563AB
:100C20006B73756D206D69736D617463682C204CF6
:100C3000617374204C696E653A20004C696E6520C2
:100C40004E756D626572206973206E6F74204C6101
:100C50007374204C696E65204E756D6265722B3120
:100C60002C204C617374204C696E653A20004D3124
:100C700031300053442072656164206572726F7276
:100C80000A002121204B494C4C2063617573656437
:100C900020627920746F6F206D75636820696E61C2
:100CA00063746976652074696D65202D20637572A3
:100CB00072656E7420636F6D6D616E643A200062C0
:100CC0007573793A2070617573656420666F722060
:100CD000696E7075740A00627573793A2070617577
:100CE00073656420666F7220757365720A006275A1
:100CF00073793A2070726F63657373696E670A0067
:100D00004D656469612052656D6F766564004D655F
:100D100064696120496E736572746564004D313099
:100D200030305300506F776572204F75746167657E
:100D3000004D363030006F6B00526573656E643A5B
:100D4000200020573A0042656420436F6F6C696E43
:100D5000672E2E2E004265642048656174696E67B7
:100D60002E2E2E0023646566696E6520444546413B
:100D7000554C545F00626564004B6420004B692051
:100D8000004B702000504944204175746F74756E9B
:100D9000652066696E6973686564212050757420EA
:100DA000746865206C617374204B702C204B692033
:100DB000616E64204B6420636F6E7374616E747334
:100DC0002066726F6D2062656C6F7720696E746F3C
:100DD00020436F6E66696775726174696F6E2E6805
:100DE0000A00504944204175746F74756E65206621
:100DF00061696C6564212074696D656F75740A00A2
:100E0000504944204175746F74756E652066616940
:100E10006C6564212054656D7065726174757265CE
:100E200020746F6F20686967680A00204B643A205D
:100E300000204B693A2000204B703A20000A2043E2
:100E40006C617373696320504944200A00204B642D
:100E50003A2000204B693A2000204B703A20000ACB
:100E6000204E6F206F76657273686F6F740A002072
:100E700054753A2000204B753A2000206D61783A75
:100E80002000206D696E3A200020643A2000206224
:100E90006961733A2000504944204175746F74753C
:100EA0006E652073746172740A0050494420417564
:100EB000746F74756E65206661696C656421205479
:100EC000656D706572617475726520746F6F2068EE
:100ED0006967680A00504944204175746F74756EE3
:100EE0006500504944204175746F74756E652066C5
:100EF00061696C6564212042616420657874727553
:100F0000646572206E756D6265720A00A100000052
:100F10006900A20000006300B00000000900C100E9
:100F200000004100C20000004100C3000000410079
:100F3000C40000004100C50000004100C6000000E0
:100F40004145C70000004300C80000004500C9003B
:100F500000004500CD0000004900D10000004E0017
:100F6000D50000004F00D60000004F00D700000061
:100F70007800DC0000005500DD0000005900E000B2
:100F800000006100E10000006100E200000061007B
:100F9000E30000006100E40000006100E5000000E3
:100FA0006100E60000006165E70000006300E80002
:100FB00000006500E90000006500EA00000065002F
:100FC000EB0000006500EC0000006900ED0000008F
:100FD0006900EE0000006900EF0000006900F10008
:100FE00000006E00F20000006F00F30000006F00D0
:100FF000F40000006F00F50000006F00F600000034
:101000006F00F80000006F00F90000007500FA00A2
:1010100000007500FB0000007500FC00000075007A
:10102000FD0000007900FF000000790004010000CD
:1010300041000501000061000601000043000701B6
:10104000000063000C01000043000D01000063007C
:101050000E01000044000F010000640011010000B7
:1010600064001901000065001A01000045001B0121
:10107000000065001F01000067003001000049000A
:10108000310100006900410100004C0042010000F4
:101090006C00430100004E00440100006E00480156
:1010A00000006E005801000052005901000072005B
:1010B0005A01000053005B01000073005F01000053
:1010C00073006001000053006101000073006501BE
:1010D000000074006F01000075007C0100007A00C0
:1010E0007D0100005A007E0100007A00920100009C
:1010F0006600E30200007800222000002E001E217E
:101100000000507822210000544D902100003C2D19
:10111000922100002D3EB02100000300BB21000001
:1011200004003C2200007E00482200007E3D602238
:101130000000213D612200003D00642200003C3D92
:10114000652200003E3DF12300000700A0300000B2
:101150003D0021F301000200C2F401000500A200DD
:101160000000EC00B0000000DF00E4000000E1003F
:10117000F6000000EF00F7000000FD00FC0000009A
:10118000F500E3020000EB0087030000A5008F03D9
:101190000000F40098030000F2009E030000E3004A
:1011A000A3030000F600A9030000F400AC03000054
:1011B000E000AD030000E300B1030000E000B20373
:1011C0000000E200B5030000E300B8030000F200F5
:1011D000BC030000E400BE030000E300C003000005
:1011E000F700C1030000E600C3030000E500902102
:1011F00000007F00922100007E001A220000E8001B
:101200001E220000F30088250000FF0002300000CD
:10121000A1000C300000A2000D300000A3009B30A4
:101220000000DE009C300000DF00A03000003D0028
:10123000A1300000A700A2300000B100A3300000E0
:10124000A800A4300000B200A5300000A900A6301C
:101250000000B300A7300000AA00A8300000B400CE
:10126000A9300000AB00AA300000B500AB30000090
:10127000B600AC300000B6DEAD300000B700AE30D6
:101280000000B7DEAF300000B800B0300000B8DEBC
:10129000B1300000B900B2300000B9DEB330000058
:1012A000BA00B4300000BADEB5300000BB00B63082
:1012B0000000BBDEB7300000BC00B8300000BCDE70
:1012C000B9300000BD00BA300000BDDEBB30000008
:1012D000BE00BC300000BEDEBD300000BF00BE302E
:1012E0000000BFDEBF300000C000C0300000C0DE24
:1012F000C1300000C100C2300000C1DEC3300000B8
:10130000AF00C4300000C200C5300000C2DEC630ED
:101310000000C300C7300000C3DEC8300000C400B6
:10132000C9300000C4DECA300000C500CB30000068
:10133000C600CC300000C700CD300000C800CE3061
:101340000000C900CF300000CA00D0300000CADE63
:10135000D1300000CADFD2300000CB00D330000013
:10136000CBDED4300000CBDFD5300000CC00D6304F
:101370000000CCDED7300000CCDFD8300000CD003C
:10138000D9300000CDDEDA300000CDDFDB300000E8
:10139000CE00DC300000CEDEDD300000CEDFDE30FF
:1013A0000000CF00DF300000D000E0300000D100AE
:1013B000E1300000D200E2300000D300E330000052
:1013C000AC00E4300000D400E5300000AD00E630B1
:1013D0000000D500E7300000AE00E8300000D60085
:1013E000E9300000D700EA300000D800EB30000000
:1013F000D900EC300000DA00ED300000DB00EF3007
:101400000000DC00F2300000A600F3300000DD0038
:10141000F4300000B3DEF7300000DCDEFA3000000C
:10142000A6DEFB300000A500FC300000B000FD305F
:101430000000A400074E0000FB0086510000FC00E5
:1014400043530000FA0064FF0000A40065FF0000A1
:10145000A50066FF0000A60067FF0000A70068FF68
:101460000000A80069FF0000A9006AFF0000AA00B0
:101470006BFF0000AB006CFF0000AC006DFF0000D4
:10148000AD006EFF0000AE006FFF0000AF0070FF08
:101490000000B00071FF0000B10072FF0000B20058
:1014A00073FF0000B30074FF0000B40075FF00007C
:1014B000B50076FF0000B60077FF0000B70078FFA8
:1014C0000000B80079FF0000B9007AFF0000BA0000
:1014D0007BFF0000BB007CFF0000BC007DFF000024
:1014E000BD007EFF0000BE007FFF0000BF0080FF48
:1014F0000000C00081FF0000C10082FF0000C200A8
:1015000083FF0000C30084FF0000C40085FF0000CB
:10151000C50086FF0000C60087FF0000C70088FFE7
:101520000000C80089FF0000C9008AFF0000CA004F
:101530008BFF0000CB008CFF0000CC008DFF000073
:10154000CD008EFF0000CE008FFF0000CF0090FF87
:101550000000D00091FF0000D10092FF0000D200F7
:1015600093FF0000D30094FF0000D40095FF00001B
:10157000D50096FF0000D60097FF0000D70098FF27
:101580000000D80099FF0000D9009AFF0000DA009F
:101590009BFF0000DB009CFF0000DC009DFF0000C3
:1015A000DD009EFF0000DE009FFF0000DF00E5FF82
:1015B00000005C0000101010101010000014141433
:1015C000141414000015151515151500001C1F1115
:1015D000111F00000006191803130C00040E1F044D
:1015E0001C000000000E1315110E00001C1018172F
:1015F00005060500040A0A0A0A11110E0C12120C43
:1016000000000000001F1511151F00000000000061
:10161000010204040000001C1C0C0404040201006C
:101620000000000004081000000000002D2D2D2DEA
:101630002D2D007C4D61726C696E7C002D2D2D2D41
:101640002D2D004732392053310047323920533293
:1016500000436C69636B20746F20426567696E009C
:10166000486F6D696E672058595A0053746F7265E0
:101670002053657474696E6773004C6F6164205306
:10168000657474696E677300426564205A00466130
:10169000646520486569676874004F6666004F6E30
:1016A00000426564204C6576656C696E67004C6528
:1016B00076656C20426564004D6F74696F6E0055ED
:1016C0006E72657472616374205600556E72657433
:1016D000722E206D6D00486F70206D6D0052657424
:1016E0007261637420560052657472616374206D78
:1016F0006D004175746F2D526574726163740042A0
:101700006564004E6F7A7A6C650046616E20537096
:1017100065656400436F6E66696775726174696FB1
:101720006E00526573746F72652044656661756CF6
:101730007473004C6F61642053657474696E6773D1
:101740000053746F72652053657474696E6773001B
:1017500050726568656174202420436F6E66005086
:101760006F776572204F7574616765004F6666001C
:101770004F6E0052756E6F75742053656E736F7285
:10178000005265747261637400416476616E6365D2
:10179000642053657474696E6773004D61696E00EF
:1017A00024F4D43050C38E20C2A24017828B701113
:1017B000127A910D816CD90AA861E108C7586607B1
:1017C000615143061E4B5D05C145A7041A41110432
:1017D000093D9803713931034036DB0265339102CC
:1017E000D4305402802E1D02632CEE01752AC501EF
:1017F000B028A001102781018F2564012B244B0103
:10180000E0223401AC211F018D200D01801FFC005E
:10181000841EED00971DDF00B81CD200E61BC60039
:10182000201BBC00641AB200B219A8000A19A0005B
:101830006A189900D117910040178B00B5168400E3
:1018400031167E00B31579003A157300C7146F0086
:1018500058146A00EE1366008813630025135E00B7
:10186000C7125B006C12570015125400C1115100D1
:1018700070114F0021114B00D61049008D10470008
:101880004610440002104200C00F4000800F3E008E
:10189000420F3C00060F3B00CB0E3800930E370082
:1018A0005C0E3500270E3400F30D3200C10D3100FF
:1018B000900D3000600D2E00320D2D00050D2C0016
:1018C000D90C2B00AE0C2900850C29005C0C2700DC
:1018D000350C27000E0C2600E80B2400C40B240056
:1018E000A00B23007D0B23005A0B2100390B210094
:1018F000180B2000F80A1F00D90A1E00BB0A1E00A0
:101900009D0A1D00800A1D00630A1C00470A1B0077
:101910002C0A1B00110A1A00F7091A00DD09190028
:10192000C4091900AB091900920917007B091800B6
:10193000630917004C091600360916002009160025
:101940000A091500F5081500E0081400CC08140079
:10195000B8081400A4081400900813007D081200B1
:101960006B081300580812004608120034081100D2
:10197000230811001208110001081100F0071000DF
:10198000E0071000D0071000C0071000B0070F00DC
:10199000A107100091070E0083070F0074070F00C6
:1019A00065070E0057070E0049070E003B070D00A4
:1019B0002E070E0020070D0013070D0006070D006F
:1019C000F9060C00ED060D00E0060C00D4060C0034
:1019D000C8060C00BC060C00B0060C00A4060B00E8
:1019E00099060C008D060B0082060B0077060B0093
:1019F0006C060B0061060A0057060B004C060A0035
:101A000042060A0038060A002E060A0024060A00CA
:101A10001A060A001006090007060A00FD0509005B
:101A2000F4050900EB050900E2050900D9050900E4
:101A3000D0050900C7050900BE050900B505080065
:101A4000AD050800A50509009C05080094050800DF
:101A50008C050800840508007C0508007405080052
:101A60006C050700650508005D05070056050800C0
:101A70004E05070047050700400508003805070028
:101A8000310507002A050700230507001C0506008D
:101A9000160507000F0507000805060002050700E8
:101AA000FB040600F5040700EE040600E804060047
:101AB000E2040700DB040600D5040600CF0406009C
:101AC000C9040600C3040600BD040600B7040600EE
:101AD000B1040500AC040600A6040600A00405003D
:101AE0009B04060095040500900406008A04050086
:101AF00085040500800406007A04050075040500CD
:101B0000700405006B04050066040500610405000F
:101B10005C04050057040500520405004D0405004F
:101B200048040500430405003E0404003A0405008F
:101B300035040500300404002C04050027040400CB
:101B4000230405001E0404001A0404001604050002
:101B5000110404000D040400090405000404040039
:101B600000040400FC030400F8030400F403040070
:101B7000F0030400EC030400E8030400E4030400A1
:101B8000E0030400DC030400D8030400D4030400D1
:101B9000D0030400CC030400C8030300C503030002
:101BA00024F404D9201BC40C5C0E9804C4095F0201
:101BB00065077101F405F900FB04B30048048700D0
:101BC000C10369005803550003034500BE023A00F3
:101BD0008402310053022A00290225000402200059
:101BE000E4011C00C8011900AF011700980114009E
:101BF00084011300710110006101100051010E00F9
:101C000043010D0036010B002B010B0020010B00DE
:101C1000150109000C01090003010800FB00080080
:101C2000F3000800EB000700E4000600DE000600F9
:101C3000D8000600D2000600CC000500C700050051
:101C4000C2000500BD000400B9000400B500040096
:101C5000B1000400AD000400A9000400A5000300C9
:101C6000A20003009F0004009B00030098000300F3
:101C70009500020093000300900003008D00020015
:101C80008B0003008800020086000200840003002D
:101C9000810002007F0002007D0002007B00020044
:101CA0007900020077000100760002007400020053
:101CB00072000100710002006F0002006D0001005F
:101CC0006C0002006A000100690002006700010068
:101CD000660001006500010064000200620001006E
:101CE00061000100600001005F0002005D00010072
:101CF0005C0001005B0001005A0001005900010076
:101D00005800010057000100560001005500010075
:101D10005400010053000000530001005200010074
:101D200051000100500001004F0001004E00000072
:101D30004E0001004D0001004C0001004B0000006E
:101D40004B0001004A00010049000100480000006A
:101D50004800010047000100460000004600010065
:101D60004500000045000100440001004300000060
:101D70004300010042000000420001004100000059
:101D800041000100400001003F0000003F00010051
:101D90003E0000003E0001003D0000003D0001004B
:101DA0003C0000003C0000003C0001003B00000043
:101DB0003B0001003A0000003A0001003900000039
:101DC0003900010038000000380000003800010030
:101DD0003700000037000100360000003600000028
:101DE000360001003500000035000000350001001C
:101DF0003400000034000000340001003300000013
:101E00003300000033000100320000003200000007
:101E100032000100310000003100000031000100FB
:101E20003000000030000000300001002F000000F2
:101E30002F0000002F0000002F0001002E000000E6
:101E40002E0000002E0001002D0000002D000000DB
:101E50002D0000002D0001002C0000002C000000CF
:101E60002C0000002C0001002B0000002B000000C3
:101E70002B0000002B0001002A0000002A000000B7
:101E80002A0000002A0001002900000029000000AB
:101E9000290000002900000029000100280000009E
:101EA0002800000028000000280000002800010091
:101EB0002700000027000000270000002700000086
:101EC0002700010026000000260000002600000078
:101ED000260000002600010025000000250000006B
:101EE000250000002500000025000000250001005D
:101EF0002400000024000000240000002400000052
:101F00002400010023000000230000002300000043
:101F10002300000023000000230000002300010034
:101F20002200000022000000220000002200000029
:101F3000220000002200010021000000210000001A
:101F4000210000002100000021000000210000000D
:101F500021000100200000002000000020000000FF
:101F600020000000200000002000000020000000F1
:101F7000200001001F0000001F0000001F000000E3
:101F80001F0000001F0000001F0000001F000100D4
:101F90001E0000001E0000001E0000001E000000C9
:101FA000752A0000C21E0000D4130000970B000029
:101FB0005406000052030000B3010000DC000000E2
:101FC000504944204175746F74756E65202A002055
:101FD000022046616374002002204D6178002002D7
:101FE000204D696E004F6666004F6E004175746F3C
:101FF00074656D70005654726176204D696E00569E
:102000006D696E00566D6178202A00566D617820EA
:102010004500566D6178205A00566D617820590050
:10202000566D6178205800416D6178202A00416D1D
:102030006178204500416D6178205A00416D6178DA
:10204000205900416D6178205800412D547261760D
:10205000656C00412D526574726163740041636365
:10206000656C0053657474696E67732053746F7286
:102070006564000000FA430000FA430000A040003D
:1020800000C8410000C8419A99A0429A99A0420014
:1020900000C8431FC50D43B8BEE643F4010000F479
:1020A0000100006400000088130000881300003B5A
:1020B0002000000000C1000000C1000000005761C6
:1020C000726E696E673A20486F6D696E672042755F
:1020D0006D702044697669736F72203C20310A006C
:1020E00002020400006943000069430000824300CB
:1020F00000A0400000A04000000040FFFFFF0000E3
:10210000000100000001000080005555550000004E
:10211000400033333300AAAA2A0049922400000069
:102120002000C7711C0099991900D1451700555519
:1021300015003BB1130024491200111111000000D9
:1021400010000F0F0F00E3380E0043790D00CCCCC8
:102150000C00C3300C00E8A20B0064210B00AAAAFB
:102160000A00703D0A009DD80900427B09009224B4
:102170000900DCD30800888808001042080000002D
:102180000800F0C107008787070075500700711C21
:1021900007003EEB0600A1BC0600699006006666DB
:1021A0000600703E06006118060017F4050074D1A1
:1021B00005005BB00500B290050062720500555540
:1021C000050078390500B81E0500050505004EEC30
:1021D000040087D40400A1BD040090A70400499224
:1021E0000400C17D0400EE690400C75604004444A5
:1021F00004005C32040008210400411004000000C7
:1022000004003FF00300F8E0030026D20300C3C33C
:102210000300CCB503003AA803000A9B0300388EE4
:102220000300C08103009F750300D0690300505E66
:1022300003001D53030034480300913D0300333372
:10224000030016290300381F030097150300300C04
:102250000300030303000BFA020049F10200BAE88D
:1022600002005CE002002DD802002DD0020059C807
:102270000200B0C0020031B90200DAB10200AAAA1D
:102280000200A0A30200BC9C0200FA9502005C8F31
:102290000200DF88020082820200457C020027766D
:1022A000020027700200436A02007C640200D05ED4
:1022B00002003F590200C8530200FFFDFCFAF8F685
:1022C000F4F2F0EEECEAE9E7E5E3E1E0DEDCDAD9AE
:1022D000D7D5D4D2D0CFCDCBCAC8C7C5C3C2C0BF53
:1022E000BDBCBAB9B7B6B4B3B2B0AFADACAAA9A8C9
:1022F000A6A5A4A2A1A09E9D9C9A99989795949317
:1023000092908F8E8D8B8A89888786848382818044
:102310007F7E7D7B7A797877767574737271706F52
:102320006E6D6C6B6A696867666564636261605F45
:102330005E5D5C5B5A59585857565554535251502C
:10234000504F4E4D4C4B4A4A4948474646454443F8
:10235000424241403F3E3E3D3C3B3B3A39383837B4
:10236000363535343332323130302F2E2E2D2C2B62
:102370002B2A292928272726252524232322212102
:1023800020201F1E1E1D1C1C1B1B1A191918181794
:102390001616151514131312121111100F0F0E0E1D
:1023A0000D0D0C0C0B0A0A0909080807070606059B
:1023B0000504040303020201000000006143000061
:1023C000614300008243000000C1000000C1000022
:1023D00000005072696E742041626F72746564000F
:1023E0004D323520500A4D32340050617573696E9C
:1023F000672E2E2E004D323400454550524F4D2051
:1024000056657273696F6E204572726F7200454532
:1024100050524F4D20496E646578204572726F723C
:1024200000454550524F4D20435243204572726F34
:1024300072003F0049676E6F726500526573657484
:1024400000496E697469616C697A6520454550522E
:102450004F4D004C6F6164206D6D00556E6C6F6167
:1024600064206D6D0046696C2E204469612E004524
:1024700020696E206D6D5E33004D33303320553151
:10248000204525692053256900486F6D696E6720D6
:102490004661696C6564006F70656E00545249470F
:1024A0004745524544003A20000000200023002602
:1024B0000029002C002F003200000100000301065B
:1024C00001090166696C616D656E74007A5F6D6902
:1024D0006E00795F6D696E00785F6D696E005265A0
:1024E000706F7274696E6720656E6473746F7020AC
:1024F0007374617475730A0020746F6F206C6F6E53
:102500006720657874727573696F6E207072657676
:10251000656E7465640A0020636F6C64206578746E
:10252000727573696F6E2070726576656E7465641E
:102530000A004572723A204D415854454D50004DA5
:10254000415854454D5020747269676765726564DF
:10255000004572723A204D494E54454D50004D4948
:102560004E54454D5020747269676765726564000A
:10257000202F002042403A0020403A007C3C3E5E42
:102580002B3D3F2F5B5D3B2C2A225C0053442049AE
:102590006E6974204661696C005344206361726403
:1025A000206F6B0A006F70656E526F6F74206661EA
:1025B000696C65640A00766F6C756D652E696E696D
:1025C00074206661696C65640A004E6F2053442074
:1025D000636172640A000A4D3234004D32332025A3
:1025E00073002E0A006F70656E206661696C656409
:1025F0002C2046696C653A200046696C652073653D
:102600006C65637465640A002053697A653A20003A
:1026100046696C65206F70656E65643A2000454EB2
:102620004420535542524F5554494E450A002220EA
:10263000706F73002220706172656E743A220053CD
:102640005542524F5554494E452043414C4C2074FD
:1026500061726765743A220053756263616C6C2025
:102660004F766572666C6F77004578636565646563
:1026700064206D617820535542524F5554494E4560
:102680002064657074683A002E0A0044656C6574B5
:10269000696F6E206661696C65642C2046696C65A3
:1026A0003A200046696C652064656C657465643A1F
:1026B000002F6175746F25632E6700577269746906
:1026C0006E6720746F2066696C653A2000667265DB
:1026D000736800646F696E67002066696C653A20F4
:1026E000004E6F7720005061726B696E672E2E2E40
:1026F0000000005761697420666F720066696C6142
:102700006D656E74206368616E676500746F207319
:1027100074617274005761697420666F7200666933
:102720006C616D656E7420756E6C6F616400004E37
:102730006F7A7A6C652068656174696E6700506CA9
:102740006561736520776169742E2E2E00005072CA
:1027500065737320627574746F6E00746F206865A2
:102760006174206E6F7A7A6C650000496E736572D1
:10277000742066696C616D656E7400616E642070B2
:102780007265737320627574746F6E00746F20636A
:102790006F6E74696E7565005761697420666F723B
:1027A0000066696C616D656E74206C6F6164000019
:1027B000507265737320427574746F6E00746F206D
:1027C000726573756D65207072696E740000576173
:1027D000697420666F72207072696E7400746F2065
:1027E000726573756D652E2E2E0000576169742019
:1027F000666F720066696C616D656E7420707572CB
:10280000676500003132350035004245443A2045C5
:1028100050434F53203130304B0052756E61776119
:10282000792057617463683A204F4E004D617820DB
:1028300054656D7000323635004D696E2054656DFB
:102840007000350045313A204550434F5320313018
:10285000304B005053550047656E657269630050F8
:10286000726F746F636F6C00312E3000426175645B
:102870000032353030303000475432353630205653
:10288000332E30004D657368204C6576656C696E3B
:1028900067004578747275646572730031006D610C
:1028A000726C696E66772E6F7267004D61676E613C
:1028B000204475616C00323032312D30312D303989
:1028C000006275676669782D322E302E78004D6172
:1028D000726C696E00546865726D6973746F72739F
:1028E00000426F61726420496E666F005072696EBB
:1028F00074657220496E666F004D61696E004D31DE
:102900003030300053746F70205072696E74005212
:102910006573756D65205072696E7400506F7765D0
:1029200072204F7574616765003F004261636B0000
:1029300053746F70005072696E742066726F6D20F0
:102940004D65646961004368616E6765204D65642B
:102950006961004D32310041626F757420507269B7
:102960006E746572004368616E67652046696C61CC
:102970006D656E7400437573746F6D20436F6D6D7C
:10298000616E647300436F6E666967757261746926
:102990006F6E004D697865720054656D7065726187
:1029A00074757265004D6F74696F6E005265737552
:1029B0006D65205072696E74004E6F204D656469BC
:1029C000610054756E650053746F70205072696EAB
:1029D00074005061757365205072696E7400496EA1
:1029E000666F2053637265656E00204D3932205446
:1029F00000204D3932205800252900257C00202850
:102A000000203B2043757272656E74205A00203B93
:102A100020456E6400203B205374617274002028AE
:102A200054004772616469656E74204D69782000B6
:102A30004D32342053256C642054256C6400473992
:102A4000322E392045257300473120462564004742
:102A500039322E39205A2573004731205A3020460A
:102A600032303000473120582573205925732046D5
:102A700033303030004D34323020532569205A2510
:102A800073004D3130362050256920532569004DA3
:102A900032303020442573004732385230585900C4
:102AA0004739322E39204530205A300A47315A25CD
:102AB00073004D31303920532569004D31393020B4
:102AC000532569004D343230205330205A300020D5
:102AD000496E76616C69642065787472756465729C
:102AE000200020496E76616C69642045207374650E
:102AF0007070657220002045207374657070657277
:102B0000206E6F74207370656369666965640A007E
:102B1000554E4C4F41442046494C414D454E540082
:102B20004C4F41442046494C414D454E5400464986
:102B30004C414D454E54204348414E474500543189
:102B40000A4D3131372055736572205363726970B5
:102B50007420446F6E650054300A4D313137205572
:102B60007365722053637269707420446F6E6500E0
:102B70004D3530330A4D313137205573657220534E
:102B8000637269707420446F6E65005365742065CC
:102B9000787472756465722031206173206163748A
:102BA000697665004765742053657474696E677350
:102BB00000536574206578747275646572203220E4
:102BC000617320616374697665004D61696E004DC3
:102BD00037303220542564004D36303020423020CA
:102BE000542564004D373032203B2564004D37308A
:102BF0003120542564004368616E67652046696C26
:102C0000616D656E7400556E6C6F61642046696C11
:102C1000616D656E74004C6F61642046696C616D16
:102C2000656E7400507265686561742043757374D5
:102C30006F6D0050726568656174202400426163A5
:102C40006B004D36303020423020542569004D371E
:102C5000303120542569004D373032205425690029
:102C60004C6F6164202A00556E6C6F6164202A00ED
:102C70004368616E67652046696C616D656E74209E
:102C80002A004D61696E004F6666004F6E005275F6
:102C90006E6F75742053656E736F72005075726736
:102CA00065206D6F726500436F6E74696E756500A7
:102CB000524553554D45204F5054494F4E533A00BD
:102CC0005052494E54205041555345440020204E07
:102CD0006F7A7A6C653A200020746F6F206C6F6E8B
:102CE0006720657874727573696F6E20707265768F
:102CF000656E7465640A0020636F6C642065787487
:102D0000727573696F6E2070726576656E74656436
:102D10000A0042656400456E636C6F7375726500EE
:102D20002568753A25303268750025303268753A65
:102D30002530326875002D2D2D00534400202020B1
:102D4000202020200025732025643B256425252094
:102D500000507265737320627574746F6E20746FA7
:102D600020726573756D650A00496E736572742013
:102D700066696C616D656E7420616E642070726549
:102D8000737320627574746F6E0A0050726573738A
:102D900020627574746F6E20746F20686561742092
:102DA0006E6F7A7A6C650A004F46460A0046616487
:102DB00065204865696768742000426564204C6539
:102DC00076656C696E6720004661696C6564207485
:102DD0006F20656E61626C6520426564204C65768B
:102DE000656C696E670A004D6573682042656420F2
:102DF0004C6576656C20646174613A0A00496E76B0
:102E0000616C6964206D6573682E0A00206E6F74B2
:102E100020656E74657265642E0A00206F6620005E
:102E20004D424C2047323920706F696E7420002962
:102E30000A004A206F7574206F662072616E6765A4
:102E40002028302D00290A0049206F7574206F66F4
:102E50002072616E67652028302D004D65736820F3
:102E600070726F62696E6720646F6E652E0A005320
:102E700074617274206D6573682070726F62696E20
:102E80006720776974682022473239205331222025
:102E900066697273742E0A004732380A4732392045
:102EA000533200686173206E6F20646174612E0A72
:102EB000004D65736820426564204C6576656C69D9
:102EC0006E67200053206F7574206F662072616EEC
:102ED00067652028302D35292E0A005741524E496A
:102EE0004E4721204C6F77205A204A65726B206D27
:102EF0006179206C65616420746F20756E77616EF6
:102F0000746564207061757365732E0A003F005309
:102F100074617274205072696E740043616E6365EF
:102F20006C005072696E740043616E6E6F74206540
:102F30006E746572207375626469723A2000052EA2
:102F40002E004D61696E002534642E2564206D6D60
:102F5000002534642E2564206D6D002020456E64AC
:102F6000205A3A002534642E2564206D6D00537478
:102F7000617274205A3A00416C69617320562D7455
:102F80006F6F6C002020456E6420562D746F6F6C3F
:102F900000537461727420562D746F6F6C004D690C
:102FA00078657200253364252520253364252500A6
:102FB000562D746F6F6C7320576572652052657360
:102FC0006574003F0043616E63656C005265736514
:102FD0007400526576657273652047726164696535
:102FE0006E74005425692D3E542569004772616452
:102FF00069656E7400526573657420562D746F6F29
:103000006C7300546F67676C65204D6978002533D9
:10301000643B2533642525004D697800416374695C
:10302000766520562D746F6F6C004D61696E005689
:10303000652D4A65726B00565A2D4A65726B0056B3
:10304000592D4A65726B0056582D4A65726B002ADD
:103050002053746570732F6D6D005A205374657022
:10306000732F6D6D00592053746570732F6D6D0053
:10307000582053746570732F6D6D00416476616ED6
:103080006365642053657474696E6773003F004321
:10309000616E63656C00496E697400496E6974699C
:1030A000616C697A6520454550524F4D0046696C08
:1030B000616D656E740054656D70657261747572D2
:1030C000650053746570732F6D6D004A65726B00F7
:1030D000416363656C65726174696F6E0056656CFF
:1030E0006F6369747900436F6E66696775726174A6
:1030F000696F6E004C6576656C696E6720446F6E13
:103100006521004D6F7665205A00473239205332D1
:10311000004E65787420506F696E74002569202F09
:10312000202575006D61726C696E66772E6F72670F
:10313000006D61726C696E66772E6F7267006D61EB
:10314000726C696E66772E6F72670062756766696A
:10315000782D322E302E78006275676669782D32B0
:103160002E302E78006275676669782D322E302EEB
:1031700078006D61726C696E66772E6F7267006D94
:1031800061726C696E66772E6F7267006D61726C2A
:10319000696E66772E6F7267002062756766697860
:1031A0002D322E302E780070012C0190012701B0B5
:1031B000012201C0011D01F00118011002130130AC
:1031C000020E016002090190020401C002FF00002A
:1031D00003FA004003F5008003F000D003EB002069
:1031E00004E6007004E100E004DC004005D700C004
:1031F00005D2004006CD00D006C8008007C30030CD
:1032000008BE00F008B900C009B400B00AAF00B0B1
:103210000BAA00D00CA500000EA000500F9B00C010
:103220001096005012910000148C00C0158700B059
:10323000178200B0197D00D01B7800001E7300407B
:10324000206E0090226900F024640040275F009007
:10325000295A00E02B5500102E500020304B001052
:10326000324600E033410090353C001037370070A3
:10327000383200A0392D00B03A2800A03B2300606E
:103280003C1E00103D1900903D1400103E0F0070D0
:103290003E0A00C03E0500003F0000403FFBFF80AB
:1032A0003FF6FFC03FF1FF2020506C616E6E6572EB
:1032B00042756666657242797465733A20002046ED
:1032C000726565204D656D6F72793A2000436F6DB0
:1032D00070696C65643A204A616E20203920323072
:1032E00032310A00204C617374205570646174653A
:1032F000643A20323032312D30312D3039207C206B
:10330000417574686F723A20286E6F6E652C206468
:10331000656661756C7420636F6E666967290A0063
:103320006275676669782D322E302E780A004D61FD
:10333000726C696E0020536F6674776172652052FB
:10334000657365740A00205761746368646F672051
:1033500052657365740A002042726F776E206F7534
:10336000742052657365740A002045787465726E26
:10337000616C2052657365740A00506F77657255F1
:10338000700A0073746172740A00473237004D315D
:10339000303031006572726F722077726974696EB5
:1033A0006720746F2066696C650A00446F6E652043
:1033B000736176696E672066696C652E0A004D320E
:1033C0003900456E6473746F707300255320256354
:1033D00020256320256320256300205A3A002059C8
:1033E0003A0020583A00656E6473746F70732068F9
:1033F00069743A2000004D6F76652025736D6D006D
:103400004D6F766520302E316D6D004D6F766520E5
:10341000316D6D004D6F76652031306D6D004D6FF3
:1034200076652041786973004578747275646572B9
:10343000004D6F7665205A004D6F76652059004D1E
:103440006F76652058005072696E742066726F6DD9
:10345000204D6564696100496E7365727420666908
:103460006C616D656E7420616E642070726573733B
:1034700020627574746F6E0A0020573A004D6167C0
:103480006E61204475616C2052656164792E005034
:1034900072696E74696E672E2E2E005072696E749A
:1034A0002050617573656400220A00556E6B6E6F63
:1034B000776E20636F6D6D616E643A202200414229
:1034C0005300504C4100C234BE34436F6F6C646F84
:1034D000776E005072656865617420240046616EE5
:1034E000205370656564207E00426564004E6F7AEB
:1034F0007A6C65004D61696E004261627973746532
:1035000070205A00466C6F770046616E20537065DC
:103510006564207E00426564004E6F7A7A6C6500B7
:10352000426564205A005370656564004D61696EA0
:10353000002100486F74656E6420746F6F20636FA4
:103540006C64004261636B0050726F636565640078
:103550004D6F74696F6E0044697361626C652053CE
:1035600074657070657273004D3834004265642074
:103570004C6576656C696E67004175746F20486FA5
:103580006D6500473238004D61696E0050726568A4
:10359000656174202420456E640050726568656121
:1035A000742024204265640054656D7065726174F6
:1035B00075726500506C6561736520526573657442
:1035C000005052494E5445522048414C5445440005
:1035D00025533A202553004B494C4C45442E20009E
:1035E0005072696E7465722068616C7465642E2017
:1035F0006B696C6C28292063616C6C6564210A001E
:103600006563686F3A004572726F723A000A4D65E1
:1036100061737572656420706F696E74733A0A0025
:10362000337833206D6573682E205A206F66667379
:1036300065743A2000486F74656E6420746F6F2063
:10364000636F6C640A0020436F756E7420583A00F3
:1036500042656400453100626564002C2073797313
:1036600074656D2073746F707065642120486561A6
:103670007465725F49443A200048656174696E67F9
:10368000204661696C65640048656174696E6720F5
:103690006661696C656400202D20496E76616C69F5
:1036A00064206578747275646572206E756D6265EC
:1036B0007220210A0043616E6E6F74206F70656E18
:1036C00020737562646972200020453A00205A3ADE
:1036D0000020593A00583A0020204D36303320005F
:1036E00020204D34313220530046696C616D656E87
:1036F000742072756E6F75742073656E736F723A95
:10370000002055004C0046696C616D656E74206C3C
:103710006F61642F756E6C6F6164206C656E677489
:1037200068733A0020204D323039205300417574BF
:103730006F2D526574726163743A20533D3020746A
:103740006F2064697361626C652C203120746F2076
:10375000696E7465727072657420452D6F6E6C7938
:10376000206D6F766573206173207265747261637A
:10377000742F7265636F76657200204600205700D3
:1037800020204D3230382053005265636F766572C9
:103790003A20533C6C656E6774683E20463C756EFB
:1037A0006974732F6D3E0020460020570020204D85
:1037B000323037205300526574726163743A20537B
:1037C0003C6C656E6774683E20463C756E69747328
:1037D0002F6D3E205A3C6C6966743E0020204D34AB
:1037E0003133205300506F7765722D4C6F73732007
:1037F0005265636F766572793A0020440020490073
:1038000020204D3330342050002044002049002037
:10381000204D33303120500050494420736574747A
:10382000696E67733A00204600204200204800205D
:10383000204D3134352053004D6174657269616CDF
:103840002068656174757020706172616D65746562
:1038500072733A002020473239205334205A002016
:103860004A00202047323920533320490020204D80
:103870003432302053004D65736820426564204C1B
:103880006576656C696E673A002058002053002009
:10389000204D323035204200416476616E636564AC
:1038A0003A20423C6D696E5F7365676D656E745F4B
:1038B00074696D655F75733E20533C6D696E5F661C
:1038C000656564726174653E20543C6D696E5F7419
:1038D000726176656C5F66656564726174653E20D1
:1038E000583C6D61785F785F6A65726B3E20593C29
:1038F0006D61785F795F6A65726B3E205A3C6D61DD
:10390000785F7A5F6A65726B3E20453C6D61785FD7
:10391000655F6A65726B3E002054002052002020D3
:103920004D323034205000416363656C65726174C0
:10393000696F6E2028756E6974732F7332293A206F
:10394000503C7072696E745F616363656C3E2052B7
:103950003C726574726163745F616363656C3E2081
:10396000543C74726176656C5F616363656C3E00A4
:1039700020204D32303120540020204D3230312073
:1039800058004D6178696D756D20416363656C65A4
:10399000726174696F6E2028756E6974732F73324B
:1039A000293A0020450020204D3230332054002099
:1039B0005A0020590020204D3230332058004D61EC
:1039C00078696D756D2066656564726174657320D4
:1039D00028756E6974732F73293A00537465707378
:1039E0002070657220756E69743A002044002020B2
:1039F0004D3230302053002044697361626C65643D
:103A00000A0046696C616D656E7420736574746933
:103A10006E67733A0020204D3134392043203B201B
:103A2000556E69747320696E2043656C7369757394
:103A30000A0020286D6D29002020473231202020E7
:103A4000203B20556E69747320696E206D6D0043B4
:103A500061703A0047322F47332062616420706101
:103A600072616D65746572730A00544845524D4128
:103A70004C2052554E4157415900546865726D6152
:103A80006C2052756E61776179000000220025007C
:103A900028002B002E003100340002010000050137
:103AA00008010B0100002100240027002A002D003E
:103AB0003000330001010000040107010A0105057F
:103AC0000505070508080808020202020A0A080894
:103AD00004040404010101010101010103030303C2
:103AE00003030303040707070C0C0C0C0C0C0C0C51
:103AF0000202020206060606060606060B0B0B0B62
:103B00000B0B0B0B01021020200808102040102086
:103B10004080020102010804020101020408102091
:103B2000408080402010080402018004020180408F
:103B300020100804020108040201010204081020F8
:103B40004080010204081020408000000A0B020996
:103B50000C0D0E0807030401000000000000000027
:103B60000000000000000000000000000000000055
:103B70000000000000001211100000000000000012
:103B80000000000000000000000000000000000035
:103B90003C02EC0111241FBECFEFD1E2DEBFCDBF4E
:103BA00000E00CBF13E0A0E0B2E0ECE9F7E702E0D0
:103BB0000BBF02C007900D92A031B107D9F728E1E1
:103BC000A0E1B3E001C01D92A239B207E1F71DE107
:103BD000C9ECDDE100E006C021970109802FFE015C
:103BE0000F941E38C83CD10780E00807A9F70F944E
:103BF00025230D94BC3B0C9400002F923F924F92D2
:103C00005F926F927F928F929F92AF92BF92CF926C
:103C1000DF92EF92FF920F931F93CF93DF93CDB775
:103C2000DEB7E1970FB6F894DEBF0FBECDBF89AB0C
:103C30002091A4112CA781E08093A41180912716D4
:103C40008D3409F41FC2843511F40C94042F873489
:103C500011F00C94302F2091251630912616253125
:103C6000310511F40C94322FB0F42430310530F4C6
:103C7000809186112230310580F156C02A303105FD
:103C800009F49DC02B30310509F49EC02430310564
:103C900009F0F4C155C02A32310509F470C168F445
:103CA0002C31310509F4D2C02D31310509F4DDC0C4
:103CB0002B31310509F0E2C18CC02B35310509F4F7
:103CC000D8C02C35310509F4D9C02A35310509F0A1
:103CD000D5C110925D120C94322F813011F00C94EA
:103CE000322F0E949DA18091AA15882311F40C9473
:103CF0006D2F85E40E94ECCA882311F40C946D2F7B
:103D000088E50E94ECCA81110C946D2F89E50E9410
:103D1000ECCA81110C946D2F8AE50E94ECCA8111C6
:103D20000C946D2F0C943B2F813011F00C94322F9A
:103D30002230310509F080E00F9497150C94322F52
:103D400080E50E947FCD882329F00E9471CA6B0113
:103D50007C0103C0C12CD12C760183E50E947FCD6C
:103D6000882361F00E94B9CA20E030E04AE754E4B9
:103D70000F9491310F94A2396B017C010E94A171C3
:103D80008091C104811105C060E08BE396E00E9440
:103D9000417F0F94D420C60ED71EE81EF91E0F9443
:103DA000D420DC01CB018C199D09AE09BF09B7FDF8
:103DB00002C00C94322F80E00E949A35F0CF81E04F
:103DC0000E942BF90C94322F80E00E942BF90C9466
:103DD000322F87E00E9450808E010F5F1F4F882393
:103DE00011F40C94982F82FF03C040EE52E002C001
:103DF00043EF52E081FF03C022EE32E002C023EF26
:103E000032E080FF03C084EE92E002C083EF92E0D4
:103E10005F934F933F932F939F938F9384E496E008
:103E20009F938F931F930F930F94C3300E94B7FCFF
:103E3000C8010E94793560E0C8010E94BE7F0FB6BC
:103E4000F894DEBF0FBECDBF0C94322F87E00E94E6
:103E5000508081110C94A92F60E08FE40E948CCDDA
:103E600081110C94322F0C94A92F0E94ADCD0C948B
:103E7000322F8FE080935D120C94322F80912416A4
:103E8000882351F1893009F076C0E0E9AE2EE2E0F6
:103E9000BE2EF3E7CF2EF2E0DF2E00E010E0F12C93
:103EA000D5018D915D010E947FCD882369F00E942C
:103EB000B9CAF6016083718382839383F3E0FF12B2
:103EC00002C011E001C001E0F39424E0C20ED11C55
:103ED00034E0F312E5CF44C060E9C62E62E0D62E8E
:103EE00073E7E72E72E0F72E00E010E0312CD601E8
:103EF0008D916D010E947FCD882359F10E94B9CA2E
:103F00004B015C01F70120813181428153810F9483
:103F10002E382B013C012DEB37E346E855EB0F948F
:103F20008F3A87FD0AC02DEB37E346E855E3C3011E
:103F3000B2010F942B31181664F4F3E03F1202C063
:103F400011E001C001E0D7018D929D92AD92BC922B
:103F500013973394B4E0EB0EF11CE4E03E12C7CFAC
:103F6000002319F00E94ED8506C0112321F08FE790
:103F700092E00E9447750E94EF850C94322F809149
:103F80008611813011F00C94322F89E40E947FCD8C
:103F9000F82E882321F00E94B5CA182F01C010E026
:103FA0008AE40E947FCD082F882319F00E94B5CAA9
:103FB00001C080E0FF2011F0133020F4002341F015
:103FC000833030F086E596E00E94CDFB0C94322FD2
:103FD00090E1E3E7F2E0AFE9B4E001900D929A9549
:103FE000E1F7FF2091F024E01202F0011124E35FD9
:103FF000FB4E408151816281738140939F045093B5
:10400000A0046093A1047093A204002391F034E013
:104010008302F0011124EF5FFB4E80819181A28128
:10402000B3818093A3049093A404A093A504B093B8
:10403000A60440E050E0BA0186E40E9471406B01A2
:104040007C0120E030E0A9010F948F3A18164CF45F
:1040500020E030E040E752E4C701B6010F9429396F
:1040600003C060E070E0CB0169837A838B839C831B
:10407000CE0101960E9443840C94322F0E9424E2C8
:104080000C94322F80912516909126168D3791052C
:1040900009F404C608F0FFC08235910509F402C690
:1040A00008F083C08A31910509F417C388F584317B
:1040B000910509F46AC278F48131910509F451C27D
:1040C00028F4029708F40DC20C94012F429709F4CA
:1040D000F9C50C94012F8731910509F48BC260F466
:1040E0008531910509F482C2469711F00C94012F95
:1040F0000E944A950C94322F8831910509F48FC2A1
:10410000499711F00C94012F0E9493A40C94322F24
:104110008F31910509F48CC378F48C31910509F441
:104120003FC308F4E8C28D31910509F441C34E97AD
:1041300009F445C30C94012F8C34910509F423C470
:1041400068F48032910509F44AC38B34910511F06B
:104150000C94012F0E944C870C94322F8D349105C2
:1041600009F415C48135910511F00C94012F0E94BA
:10417000EBFE0E9485870E94B2710E94D43383E0D7
:10418000E0E2F3E0DF011D928A95E9F768EE73E063
:1041900080E090E00E94A9FB0E94DA3360E082E8B0
:1041A00097E00E94417F0C94322F8E36910509F4DE
:1041B0009DC470F58836910509F4EDC380F484350B
:1041C000910509F47FC508F475C58535910509F495
:1041D000B0C58C35910509F4D1C50C94012F8B36EF
:1041E000910509F474C450F48936910509F417C493
:1041F0008A36910509F427C40C94012F8C36910559
:1042000009F4CCC48D36910509F4E6C30C94012F52
:104210008337910509F460C6B8F48037910509F435
:10422000C3C408F476C48137910509F4C4C4823745
:10423000910511F00C94012F0F947B0C8AEB93E104
:104240000F942A050C94322F8737910509F40DC776
:1042500088F48537910509F4C6C68637910511F0B3
:104260000C94012F009122161091231694E0F12C4A
:1042700040E0DFC68837910509F4FAC68937910511
:1042800011F00C94012F1092750D1092740D0E9474
:10429000F2860C94322F8E32A1E09A0711F40C941E
:1042A000F42C08F07DC08C3C910511F40C949129FC
:1042B000B0F5843A910509F47FC7A8F481399105D6
:1042C00009F4DEC630F48C38910509F49EC40C94D0
:1042D000012F8B39910509F4B9C4833A910509F48A
:1042E00043C70C94012F883C910509F47BC768F4FF
:1042F000863A910509F473C78E3B910511F00C9431
:10430000012F0E94F1450C94322F893C910509F44C
:10431000B0C78B3C910509F4DCC70C94012F833D99
:10432000910511F40C94602AD8F48F3C910511F496
:104330000C94C52948F48D3C910511F00C94012F83
:104340000E943ACB0C94322F803D910511F40C94CD
:10435000092A813D910511F40C94532A0C94012FE4
:104360008232E1E09E0711F40C94862B60F48C3DC0
:10437000910511F40C94F02A8D3D910511F40C94E3
:10438000312B0C94012F8C3221E0920711F40C9404
:10439000EC2B8D32914011F40C94012C0C94012FD4
:1043A000863FA1E09A0711F40C940F2E08F044C048
:1043B0008C39E1E09E0711F40C943E2DC0F480335B
:1043C00021E0920711F40C94812C10F40C94382DF8
:1043D0008039A1E09A0711F40C943B2D8A39914061
:1043E00011F00C94012F0E94FA320C94322F853A6E
:1043F000E1E09E0711F40C944E2D78F48D3921E004
:10440000920711F40C94C72E843A914011F00C9449
:10441000012F0E94BECB0C94322F843FA1E09A075B
:1044200011F40C940C2E853F914011F00C94012F47
:104430000E94AA680C94322F8D3BE2E09E0711F493
:104440000C94B32E08F58C3022E0920711F40C94F2
:104450002C2E68F4873FA1E09A0711F40C94122ED9
:10446000883F914011F40C941B2E0C94012F883539
:10447000E2E09E0711F40C94392E8B35924011F432
:104480000C943C2E0C94012F873E23E0920711F4EC
:104490000C94B92EC8F48E3BA2E09A0711F40C9448
:1044A000B62E803A934011F00C94012F20912216E1
:1044B0003091231690912414926090932414C90192
:1044C0000E9414960C94322F883EE3E09E0711F46C
:1044D0000C94DE2E893E934011F40C94E12E0C9442
:1044E000012F80E50E947FCD882329F00E9471CAA8
:1044F0006B017C0103C0C12CD12C760183E50E94A5
:104500007FCD882361F00E94B9CA20E030E04AE7FD
:1045100054E40F9491310F94A2396B017C010E94F5
:10452000A1718091221690912316009721F061E0ED
:104530000E94BE7F0DC060E08FE696E00E94417F42
:104540001092340D1092350D1092360D1092370DD9
:1045500040E0C701B6010E94463B0E9475E20C9400
:10456000322F80911E1684FF02C00C94403180913E
:10457000201687FF02C00C94403180912116837071
:1045800011F00C9440310C9458318091241483FF25
:1045900025C08AE996E00E94CDFB8091241483FF18
:1045A00017C083E494E10E944E8D8BE1E3E4F4E1D3
:1045B000DE01119601900D928A95E1F760E070E0BE
:1045C000CE0101960F94C305CE0101960E9499CFAA
:1045D0008BE896E00E94CDFB0C94322F0E94B7FC32
:1045E0008BEA96E00E94CDFB0C94322F0E94E0985B
:1045F0000C94322FE0912216F091231680818823AB
:1046000029F0803209F410823196F8CF60E0809171
:104610002216909123160E945C960C94322F83E50B
:104620000E947FCD882321F00E9481CA0E94E94721
:1046300084E50E947FCD8823A9F00E9481CA6B0186
:104640007C010E943187C0926B05D0926C05E0928C
:104650006D05F0926E05CD28CE28CF2819F081E0A7
:104660008093B71180917F058823F9F080E090E076
:10467000A8E4B2E488A399A3AAA3BBA31C8E1D8EB1
:104680001E8E1F8E19821A821B821C8200E010E08F
:1046900020E0AE01405E5F4FBE01645E7F4FCE0101
:1046A00001960E949FCF0C94322F0E94B033882332
:1046B00081F00E94E9940E944C878BEC92E10E9469
:1046C0008E941092AE031092AF031092B00310922A
:1046D000B1030E9475E20C94322F8091241483FD63
:1046E00002C00C94322F83E50E947FCD81110C947F
:1046F00063310C94322F83E40E94ECCA882319F1B1
:104700008FEB96E00E94CDFB80918A15882391F073
:10471000BE016F5F7F4F87E895E10E94158C8E0187
:104720000F5F1F4FD8018D918D01882339F00E94B2
:104730006E34F8CF85EB96E00E94CDFB8AE00E94B4
:104740006E340C94322F8091241482FF23C0C090C9
:104750002014D0902114E0902214F09023148EECB9
:1047600096E00E94CDFB4AE0C701B6010E94753475
:104770008FE20E946E3460911C1470911D14809120
:104780001E1490911F144AE00E9475340E947335E4
:104790000C94322F80EE96E00E94CDFB0C94322FC9
:1047A00080912216909123160E9414960C94322F19
:1047B000809124148E7F809324140C94322F809146
:1047C000241483FD02C00C94322F0E940DE28091CC
:1047D0002216909123160E945C9A0C94322F80919D
:1047E000241482FD0E94A1718091241483FD02C0D3
:1047F0000C94322F60E080E50E948CCD182F682F3A
:1048000080912216909123160E945C9683E50E9467
:104810007FCD882321F00E9481CA0E94E9470E942F
:10482000E99411110C94322F0E944C870C94322F72
:104830000E94FD867B018C0120E831E541E050E0DB
:104840000F948137C9016DE671E00F94D7374B01A2
:104850005C01C801B70120E13EE040E050E00F9468
:104860008137CA01B90128E130E040E050E00F94FF
:104870008137762E672EC62ED72E5CE3252E312C5F
:10488000412C512CC801B701A20191010F9481372D
:10489000F62EE72ECA01B901A20191010F948137CA
:1048A000CB018E010F5F1F4F8114910499F0EF929D
:1048B000FF927F936F936F927F92BF92AF929F927E
:1048C0008F9289E197E09F938F931F930F930F949B
:1048D000C33013C0A114B104B1F0EF92FF927F93E3
:1048E0006F936F927F92BF92AF9289E097E09F9310
:1048F0008F931F930F930F94C3300FB6F894DEBFBE
:104900000FBECDBF30C0CD2879F0EF92FF927F93DC
:104910006F936F927F928DEF96E09F938F931F938B
:104920000F930F94C330E9CF892B69F0EF92FF9278
:104930007F936F9385EF96E09F938F931F930F93D1
:104940000F94C330DACFEF92FF9281EF96E09F93FE
:104950008F931F930F930F94C3300F900F900F906E
:104960000F900F900F9060E0C8010E94BE7F0E94E0
:10497000B7FCB8018DE297E00E94A0FC8AE00E949B
:104980006E340C94322F0E9470870C94322F0E9448
:1049900085870C94322F80915C1283FF02C00C94A7
:1049A000322F89E40E947FCD882311F40C94683162
:1049B0000E9491CA90E01816190614F481E090E064
:1049C00026E0289FF001299FF00D1124E453FA4EB0
:1049D000808191810C94723180915C1283FF02C0BE
:1049E0000C94322F89E40E947FCD182F882311F474
:1049F0000C947B310E9491CA90E01816190614F4A9
:104A000081E090E026E0289FF001299FF00D11241D
:104A1000E453FA4E8081918100E00C948B310E9426
:104A20003FA2182F87FD0AC085E597E00E94CDFBC5
:104A3000812F0E947A908AE00E946E34BCA5B093C8
:104A4000A4110C94A13260E080E50E94A1CDF82E63
:104A5000E2E0E81710F40C94322F81E40E94ECCAD3
:104A6000882329F060916B12062F10E002C00FEF2F
:104A700010E089E40E947FCD882399F00E9491CABA
:104A800090E01816190614F481E090E026E0289FC3
:104A9000F001299FF00D1124E453FA4E0481158191
:104AA00008C083E50E947FCD882319F00E9481CA47
:104AB0008B01EF2DF0E0E559FD4EB8010F3F1105D8
:104AC00019F010F06FEF70E060830C94322F60E00B
:104AD00080E50E94A1CD833010F00C94322FE82F96
:104AE000F0E0E559FD4E10820C94322F8EE40E94C6
:104AF0007FCD882311F40C94322F0E9481CA6093D9
:104B000036047093370480933804909339040C94DE
:104B1000322F83E50E94ECCA882331F060E083E500
:104B20000E94A1CD80935C120E94B7FC86E697E0BC
:104B30000E94CDFB80915C12882369F14CE5E42E44
:104B400047E0F42E00E010E020E080915C1290E05D
:104B5000A0E0B0E0002E04C0B695A7959795879584
:104B60000A94D2F780FF0EC0DD24D394D20E222304
:104B700019F08CE20E946E34F701859194910E94A5
:104B8000CDFB2D2D0F5F1F4FF2E0EF0EF11C053016
:104B90001105D9F6D3CD88E597E0CECD1092A311BB
:104BA000109256020C94322F41E060E070E08DE6E6
:104BB00097E00E9400FE83E50E947FCD882381F06C
:104BC0000E9491CA282F30E02D33310524F48093C0
:104BD00000020C94322F8CE3809300020C94322F4D
:104BE0000E94B7FCC0900002D12CE12CF12C8BE785
:104BF00097E00E94CDFB4AE0C701B6010E947534E0
:104C00008AE00E946E340C94322F80915C1283FFF4
:104C100002C00C94322F89E40E947FCD882311F4C6
:104C20000C94D3310E9491CA90E01816190614F41E
:104C300081E090E026E0289FF001299FF00D1124EB
:104C4000E453FA4E628173810C94DD3183E50E9456
:104C50007FCD882311F40C94322F0E9491CA182F13
:104C600090E0CD970CF01CE3109315030F94D42023
:104C70006B017C01212F30E0A8EEB3E00F94AE373A
:104C8000C60ED71EE81EF91EC0921103D092120361
:104C9000E0921303F09214030C94322F0E9493A419
:104CA0000C94322F80915D128F7D806180935D1214
:104CB0000C94322F80915D128F7E806280935D1202
:104CC0000C94322F83E50E947FCD8823F1F00F945E
:104CD000D4206093A5117093A6118093A71190938F
:104CE000A8110E94B9CA20E030E04AE754E40F94CA
:104CF00091310F94A2396093010270930202809364
:104D00000302909304020C94322F80911E1684FFAC
:104D100002C00C94F0318091201687FF02C00C94E1
:104D2000F03180912116837011F00C94F0310C94C5
:104D30001C3283E50E94ECCA882311F40C94322FB4
:104D40000F94D4206093A5117093A6118093A7119E
:104D50009093A8110E94B9CA20E030E04AE754E4D9
:104D60000F9491310F94A239609316037093170337
:104D700080931803909319030C94322F0E943FA242
:104D800087FF02C00C94322F90911E1694FD04C030
:104D90009091201697FF23C0A0E92A2EA2E03A2E78
:104DA000BAEDAB2EBCE0BB2E1CA28D5F082F10E02D
:104DB000C801880F991F880F991FFC01EE50F34F0F
:104DC0004F01C801880F991F880F991F9C012A5F06
:104DD000324F39A728A78C010B5A194F0AC090915E
:104DE00021169370C9F6682F81E00E9470AA0C9476
:104DF000322FD1018D911D010E947FCD882309F4AE
:104E00005FC0BCA1B33009F054C00E94B9CA2B01E5
:104E10003C0120E030E040EA51E40F942B3187FF61
:104E200041C0A3019201F40160817181828193816B
:104E30000F9429396B017C019B01AC0160915106F3
:104E40007091520680915306909154060F949131BF
:104E500060935106709352068093530690935406C4
:104E6000A7019601A8A5B9A56D917D918D919C9101
:104E70000F949131E8A5F9A56083718382839383B0
:104E8000D8016D917D918D919C910F943031A70146
:104E900096010F9491310F94A239F80160837183C8
:104EA00082839383D4014D925D926D927C9213978D
:104EB00007C00E94B9CAF501608F718F828F938FEE
:104EC000FCA1FF5FFCA324E0A20EB11CF43009F0AA
:104ED00090CF0E94DC70C6C78BEE98E00E94CDFB9D
:104EE00060E08BED98E00F94F81A60E086EC98E0B3
:104EF0000F94F81A61E08FEB98E00F94F81A61E0D4
:104F000084EB98E00F94F81A61E084EA98E00F943B
:104F1000F81A60E08BE998E00F94F81A61E081E9F3
:104F200098E00F94F81A60E087E898E00F94F81A78
:104F300061E080E898E00F94F81A60E088E798E074
:104F40000F94F81A61E08AE698E00F94F81A60E08E
:104F50008CE598E00F94F81A60E08DE498E00F94E7
:104F6000F81A60E08FE398E00F94F81A60E089E2A5
:104F700098E00F94F81A60E088E198E00F94F81A2E
:104F800060E089E098E00F94F81A61E082E098E030
:104F90000F94F81A60E08BEF97E00F94F81A60E036
:104FA00086EE97E00F94F81A60E088ED97E00F9492
:104FB000F81A61E085EC97E00F94F81A60E088EB4E
:104FC00097E00F94F81A61E083EB97E00F94F81ADA
:104FD00061E086EA97E00F94F81A60E082E997E0D2
:104FE0000F94F81A3FC780912216909123160097CC
:104FF00009F46FCBDC012C91222309F46ACB60E029
:105000000E94BE7F2FC7F8018081282F2B7F21347B
:1050100099F08035E9F4818180538A30C8F4980191
:105020002E5F3F4F89012F5F3F4FF8018081803213
:10503000C9F3915041F70CC02181213349F48134E7
:1050400021F0853461F741E0EACFFF24F394E7CF04
:1050500041110E94B7FCFF2021F08EEB99E00E94E5
:10506000CDFBC8010E947935FDC60E947486FAC640
:1050700081E08093750D8093740D0E94F286F2C6D4
:1050800060E070E083E50E9464A6823038F00E9400
:10509000B3FC81EC99E00E94CDFBE4C68C011127A2
:1050A00088E40E947FCD8823E1F00E94B5CA8A3A45
:1050B000910544F00E94B5CA8B3F910534F40E94DB
:1050C000B5CA05C08AEA90E002C08AEF90E026E007
:1050D000209FF001219FF00D1124E453FA4E91839B
:1050E000808382E40E947FCD8823D9F00E94B5CAD4
:1050F000059744F00E94B5CA8437910534F40E94A4
:10510000B5CA05C085E090E002C083E790E026E0E4
:10511000209FF001219FF00D1124E453FA4E938358
:10512000828386E40E947FCD882309F49BC60E9477
:10513000B5CA97FD09C00E94B5CA8F3F910509F015
:1051400034F40E94B5CA05C080E090E002C08FEF41
:1051500090E026E0209FF001219FF00D1124E45300
:10516000FA4E958384837EC660E070E083E50E94FA
:1051700064A68C0102970CF075C640E050E0BA01BD
:1051800080E50E9471406B017C01112720E030E036
:10519000A9010F948F3A18161CF0C12CD12C76015E
:1051A000000F111F000F111FF801E858F24FC082C5
:1051B000D182E282F38256C66FEF7FEF83E50E94D1
:1051C00064A697FD07C0803191050CF04BC60E9484
:1051D000B9F848C6809193060E94B9F843C60E9468
:1051E000BAA540C60E943FA2182F87FD3BC600917A
:1051F000891284E40E947FCD882311F40C941F321D
:105200000E94B9CA6B017C0120E030E0A9010F9433
:105210002B31882341F124E01202F0011124EB57D5
:10522000FD4EC082D182E282F38220E030E0A9010B
:1052300060918512709186128091871290918812E8
:105240000F942B3181110CC080E090E0A0EEBFE301
:105250008093851290938612A0938712B093881240
:1052600001E00C941F3280E0809389120E94196E35
:10527000F9C50E943FA287FDF5C570E9C72E72E00F
:10528000D72EF12CE3E0EE2EE80ED6018D916D01C4
:105290000E94ECCA8823C1F0B3E0FB1202C00E2DBD
:1052A00001C00F2D0E94B9CAE4E00E9F80011124B5
:1052B0000652134F0F94A239D8016D937D938D93AD
:1052C0009C9313970E948C70F394B4E0FB12DDCF93
:1052D000C9C50E943FA287FDC5C550E9E52E52E031
:1052E000F52E00E063E0D62ED80EF70181917F0104
:1052F0000E94ECCA882389F0033011F41D2D01C0EF
:10530000102F0E94B9CA24E0129FF0011124EA5F15
:10531000F24F60837183828393830F5F043029F798
:10532000A1C580911F1687FF02C00C942532809181
:1053300020168E7011F00C94253240911A0D509168
:105340001B0D60911C0D70911D0D86EE99E00E9461
:1053500082FC40911E0D50911F0D6091200D7091A7
:10536000210D83EE99E00E9482FC4091220D509124
:10537000230D6091240D7091250D88E199E30E9421
:1053800082FC8AE00E946E346DC583E50E94ECCAFF
:10539000882351F00E94B9CA6093AB157093AC1585
:1053A0008093AD159093AE1586E40E94ECCA8823D5
:1053B00081F00E94B9CA20E030E040E752E40F9447
:1053C00029396093AF157093B0158093B115909300
:1053D000B2158AE50E94ECCA882351F00E94B9CA2E
:1053E0006093B3157093B4158093B5159093B6156B
:1053F00087E50E94ECCA882309F434C50E94B9CA23
:105400006093BF157093C0158093C1159093C2151A
:1054100029C583E50E94ECCA882351F00E94B9CACD
:105420006093B7157093B8158093B9159093BA151A
:1054300086E40E94ECCA882381F00E94B9CA20E069
:1054400030E040E752E40F9429396093BB15709324
:10545000BC158093BD159093BE1582E50E94ECCAE1
:10546000882381F00E94B9CA20E030E040E752E48E
:105470000F9429396093C7157093C8158093C91587
:105480009093CA1587E50E94ECCA882309F4EAC400
:105490000E94B9CA6093C3157093C4158093C51553
:1054A0009093C615DFC483E50E94ECCA882309F4F3
:1054B000D9C40E94A5CA8093AA150E9464A1D2C42F
:1054C0008091240290912502A0912602B09127029A
:1054D0008CA39DA3AEA3BFA34090280250902902A5
:1054E00060902A0270902B0280902C0290902D02E6
:1054F000A0902E02B0902F02C0903002D0903102C6
:10550000E0903202F09033028091340290913502A3
:10551000A0913602B091370288A799A7AAA7BBA786
:105520008091380290913902A0913A02B0913B02E9
:105530008DA79EA7AFA7B8AB0E94B7FC8FE09AE0FB
:105540000E94CDFB83E50E94ECCA882321F00E94D3
:10555000A5CA8093220280912202882319F08AEF43
:1055600099E002C086EF99E00E94CDFB87E09AE0C7
:105570000E94CDFB4CA15DA16EA17FA189E898E3BB
:105580000E9482FCB301A20182EB99E30E9482FC9B
:10559000B501A4018FEA99E30E9482FC85E09AE0BC
:1055A0000E94CDFB8DEF99E00E94CDFBB701A601D3
:1055B00089E898E30E9482FC48A559A56AA57BA5C5
:1055C00082EB99E30E9482FC4DA55EA56FA578A9A8
:1055D0008FEA99E30E9482FC8AE00E946E3442C402
:1055E00082E40E94ECCA882341F080913C029091B1
:1055F0003D02909306028093050282E50E94ECCA68
:10560000882341F0809105029091060290933D021B
:1056100080933C0283E50E947FCD882331F00E9475
:10562000B5CA90933D0280933C0280911E169091E2
:105630001F16A0912016B0912116892B8A2B8B2B37
:1056400009F010C460913C0270913D028FE19AE034
:105650000E9493FC85E20E946E348AE00E946E34C0
:1056600001C40E943FA2F82E87FDFCC383E50E947F
:105670007FCD0F2D0F2C000C110B882361F10E94A0
:10568000B5CAF801EE0FFF1FEC5EFD4F91838083DA
:10569000000F111F000F111FD801AF5BBD4F7D011F
:1056A000BC01990F880B990B0F9432312AE037ED2A
:1056B00043E25CE30F949131F801E954FB4F208100
:1056C0003181428153810F949131F701608371835D
:1056D00082839383C7C30E94B7FC85E40E946E3423
:1056E00080E38F0D0E946E34F801EE0FFF1FEC5E19
:1056F000FD4F6081718183E29AE00E9493FC85E214
:105700000E946E348AE00E946E34ACC38AE50E9427
:105710007FCD811106C083E50E947FCD882309F4E7
:1057200040C00E94B9CA20E030E040E050EC0F9445
:105730002B3187FDD6C60E94B9CA20E030E040E098
:1057400050E40F948F3A18160CF4C5C60E94B9CADB
:105750006B017C0184E00E945080811122C0209165
:10576000FA0C3091FB0C4091FC0C5091FD0CC701E0
:10577000B6010F9491310F949B392091C111309152
:10578000C211260F371F3093C2112093C1112091EF
:10579000790530917A05620F731F70937A056093D3
:1057A00079058091201687FDA2C68091211683700D
:1057B00009F09DC60E94B7FC4091D8155091D915AB
:1057C0006091DA157091DB158BE29AE00E9482FC01
:1057D0008AE00E946E3446C364E071E083E50E9473
:1057E0005CA58C0168EE73E080E50E945CA58938B9
:1057F000F3E19F0710F088E893E1B8010E9485EB80
:1058000031C360E085E40E94A1CD811173C080E5C1
:105810000E94ECCA882351F00E94B9CA60935013C9
:1058200070935113809352139093531389E40E9401
:10583000ECCA882381F00E94B9CA2CEA35EC47E211
:105840005EE30F94913160935413709355138093DA
:1058500056139093571384E40E94ECCA882381F076
:105860000E94B9CA2CEA35EC47E25EE30F9429396D
:10587000609358137093591380935A1390935B134A
:105880000E94B7FC409150135091511360915213F4
:105890007091531380E49AE00E9482FC2CEA35EC6C
:1058A00047E25EE360915413709155138091561353
:1058B000909157130F942939AB01BC018CE39AE006
:1058C0000E9482FC2CEA35EC47E25EE360915813BB
:1058D0007091591380915A1390915B130F949131E9
:1058E000AB01BC0188E39AE00E9482FC8AE00E943E
:1058F0006E34B8C20E94B3FC84E49AE00E94CDFBEF
:10590000B1C280E50E94ECCA882351F00E94B9CA56
:105910006093791270937A1280937B1290937C1229
:1059200089E40E94ECCA882381F00E94B9CA2CEA5B
:1059300035EC47E25EE30F94913160937D127093F2
:105940007E1280937F129093801284E40E94ECCAAE
:10595000882381F00E94B9CA2CEA35EC47E25EE365
:105960000F9429396093811270938212809383126D
:10597000909384120E94B7FC4091791250917A1250
:1059800060917B1270917C128EE59AE00E9482FCFD
:105990002CEA35EC47E25EE360917D1270917E1255
:1059A00080917F12909180120F942939AB01BC0134
:1059B0008AE59AE00E9482FC2CEA35EC47E25EE33D
:1059C0006091811270918212809183129091841261
:1059D0000F949131AB01BC0186E59AE00E9482FCF4
:1059E0008AE00E946E343EC283E50E94ECCA182F02
:1059F000882371F00E94B9CA0F949B3970934602B4
:105A00006093450221E0672B09F020E020935B12B0
:105A100080E50E94ECCA882359F02091450230911C
:105A20004602232B11F00E94A5CA80935B121AC272
:105A3000111118C20E94B7FC8EE79AE00E94CDFBBC
:105A400080915B12882319F086E69AE002C082E614
:105A50009AE00E94CDFB60914502709146028DE66E
:105A60009AE00E9493FC89E69AE00E94CDFBFAC17D
:105A70000E948840F7C10E94A171F4C18091201654
:105A8000867009F03AC50E94B7FC81E99AE00E944D
:105A9000CDFB809183020E9476FCE4C188E50E94E0
:105AA000ECCAD82E89E40E94ECCAC82E882321F0C3
:105AB0000E94B5CAA82E1EC0DD20C1F00E94B9CA3E
:105AC00020E030E040E251E40F942E3820E030E056
:105AD0004DE452E40F942F382AE038ED4FE15CE3B7
